{
  "contractName": "Institute",
  "abi": [
    {
      "constant": true,
      "inputs": [
        {
          "name": "",
          "type": "uint256"
        }
      ],
      "name": "Institutes",
      "outputs": [
        {
          "name": "id",
          "type": "uint256"
        },
        {
          "name": "name",
          "type": "string"
        },
        {
          "name": "studentCount",
          "type": "uint256"
        }
      ],
      "payable": false,
      "stateMutability": "view",
      "type": "function"
    },
    {
      "constant": true,
      "inputs": [],
      "name": "instituteCount",
      "outputs": [
        {
          "name": "",
          "type": "uint256"
        }
      ],
      "payable": false,
      "stateMutability": "view",
      "type": "function"
    },
    {
      "anonymous": false,
      "inputs": [
        {
          "indexed": false,
          "name": "id",
          "type": "uint256"
        }
      ],
      "name": "instituteCreatedEvent",
      "type": "event"
    },
    {
      "constant": false,
      "inputs": [
        {
          "name": "_name",
          "type": "string"
        }
      ],
      "name": "addInstitute",
      "outputs": [],
      "payable": false,
      "stateMutability": "nonpayable",
      "type": "function"
    }
  ],
  "bytecode": "0x608060405234801561001057600080fd5b50610421806100206000396000f3fe608060405234801561001057600080fd5b50600436106100415760003560e01c8063dc26cbd614610046578063fb72749a146100fb578063fefb21a4146101b6575b600080fd5b6100726004803603602081101561005c57600080fd5b81019080803590602001909291905050506101d4565b6040518084815260200180602001838152602001828103825284818151815260200191508051906020019080838360005b838110156100be5780820151818401526020810190506100a3565b50505050905090810190601f1680156100eb5780820380516001836020036101000a031916815260200191505b5094505050505060405180910390f35b6101b46004803603602081101561011157600080fd5b810190808035906020019064010000000081111561012e57600080fd5b82018360208201111561014057600080fd5b8035906020019184600183028401116401000000008311171561016257600080fd5b91908080601f016020809104026020016040519081016040528093929190818152602001838380828437600081840152601f19601f820116905080830192505050505050509192919290505050610296565b005b6101be61034a565b6040518082815260200191505060405180910390f35b6000602052806000526040600020600091509050806000015490806001018054600181600116156101000203166002900480601f0160208091040260200160405190810160405280929190818152602001828054600181600116156101000203166002900480156102865780601f1061025b57610100808354040283529160200191610286565b820191906000526020600020905b81548152906001019060200180831161026957829003601f168201915b5050505050908060020154905083565b6001600081548092919060010191905055506040518060600160405280600154815260200182815260200160008152506000806001548152602001908152602001600020600082015181600001556020820151816001019080519060200190610300929190610350565b50604082015181600201559050507fc825b02aaf76b8329f0379cbf2edbda85b27a2418fcefd24c39f587c05f4a9266001546040518082815260200191505060405180910390a150565b60015481565b828054600181600116156101000203166002900490600052602060002090601f016020900481019282601f1061039157805160ff19168380011785556103bf565b828001600101855582156103bf579182015b828111156103be5782518255916020019190600101906103a3565b5b5090506103cc91906103d0565b5090565b6103f291905b808211156103ee5760008160009055506001016103d6565b5090565b9056fea165627a7a72305820f3cbecab0bde0edce04debbe51c71d507b58cc91d44c301c61714a9a3adc22910029",
  "source": "pragma solidity ^0.5.0;\n\ncontract Institute{\n   struct InstituteDetails {\n        uint id;\n        string name;\n        uint studentCount;\n    }\n\n\n    mapping(uint => InstituteDetails) public Institutes;\n\n    event instituteCreatedEvent (\n        uint  id\n    );\n     // Store Candidates Count\n    uint public instituteCount;\n\n  function addInstitute (string memory _name) public {\n        instituteCount ++;\n        Institutes[instituteCount] = InstituteDetails(instituteCount, _name, 0);\n        emit instituteCreatedEvent(instituteCount);\n    }\n}",
  "sourcePath": "/home/anupam/Blockchain/BlockChain_Institute_Managment/src/contracts/Institute.sol",
  "compiler": {
    "name": "solc",
    "version": "0.5.8+commit.23d335f2.Emscripten.clang"
  },
  "schemaVersion": "3.0.11",
  "updatedAt": "2019-07-31T15:12:56.420Z",
  "devdoc": {
    "methods": {}
  },
  "userdoc": {
    "methods": {}
  }
}