{
  "contractName": "Institute",
  "abi": [
    {
      "anonymous": false,
      "inputs": [
        {
          "indexed": false,
          "name": "isLoggedIn",
          "type": "bool"
        }
      ],
      "name": "LoginResponse",
      "type": "event"
    },
    {
      "constant": false,
      "inputs": [
        {
          "name": "_userName",
          "type": "string"
        },
        {
          "name": "_password",
          "type": "string"
        }
      ],
      "name": "login",
      "outputs": [],
      "payable": false,
      "stateMutability": "nonpayable",
      "type": "function"
    }
  ],
  "bytecode": "0x60806040526040518060400160405280600a81526020017f4d79496e737469747565000000000000000000000000000000000000000000008152506000908051906020019061004f9291906100ae565b506040518060400160405280600881526020017f40313233616263400000000000000000000000000000000000000000000000008152506001908051906020019061009b9291906100ae565b503480156100a857600080fd5b50610153565b828054600181600116156101000203166002900490600052602060002090601f016020900481019282601f106100ef57805160ff191683800117855561011d565b8280016001018555821561011d579182015b8281111561011c578251825591602001919060010190610101565b5b50905061012a919061012e565b5090565b61015091905b8082111561014c576000816000905550600101610134565b5090565b90565b610507806101626000396000f3fe608060405234801561001057600080fd5b506004361061002b5760003560e01c806358467dbc14610030575b600080fd5b6101806004803603604081101561004657600080fd5b810190808035906020019064010000000081111561006357600080fd5b82018360208201111561007557600080fd5b8035906020019184600183028401116401000000008311171561009757600080fd5b91908080601f016020809104026020016040519081016040528093929190818152602001838380828437600081840152601f19601f820116905080830192505050505050509192919290803590602001906401000000008111156100fa57600080fd5b82018360208201111561010c57600080fd5b8035906020019184600183028401116401000000008311171561012e57600080fd5b91908080601f016020809104026020016040519081016040528093929190818152602001838380828437600081840152601f19601f820116905080830192505050505050509192919290505050610182565b005b60008251116101f9576040517f08c379a000000000000000000000000000000000000000000000000000000000815260040180806020018281038252601c8152602001807f757365724e616d652073686f756c64206e6f7420626520656d7074790000000081525060200191505060405180910390fd5b6000815111610270576040517f08c379a000000000000000000000000000000000000000000000000000000000815260040180806020018281038252601c8152602001807f70617373776f72642073686f756c64206e6f7420626520656d7074790000000081525060200191505060405180910390fd5b600060405160200180828054600181600116156101000203166002900480156102d05780601f106102ae5761010080835404028352918201916102d0565b820191906000526020600020905b8154815290600101906020018083116102bc575b505091505060405160208183030381529060405280519060200120826040516020018082805190602001908083835b6020831061032257805182526020820191506020810190506020830392506102ff565b6001836020036101000a038019825116818451168082178552505050505050905001915050604051602081830303815290604052805190602001201480156104545750600160405160200180828054600181600116156101000203166002900480156103c55780601f106103a35761010080835404028352918201916103c5565b820191906000526020600020905b8154815290600101906020018083116103b1575b505091505060405160208183030381529060405280519060200120816040516020018082805190602001908083835b6020831061041757805182526020820191506020810190506020830392506103f4565b6001836020036101000a03801982511681845116808217855250505050505090500191505060405160208183030381529060405280519060200120145b1561049a577f80511114dae503bfa3fdfcb12893686babc110f01ae362c79abe2ce6aec1ae426001604051808215151515815260200191505060405180910390a16104d7565b7f80511114dae503bfa3fdfcb12893686babc110f01ae362c79abe2ce6aec1ae426000604051808215151515815260200191505060405180910390a15b505056fea165627a7a72305820a09ff39c79ebe61909bbd0f0dc7735e1669f99edf584a6297a806bb4b3f182d90029",
  "source": "pragma solidity ^0.5.0;\n\ncontract Institute{\n  string userName = \"MyInstitue\";\n  string password = \"@123abc@\";\n\n  event LoginResponse(bool isLoggedIn);\n\n  function login(string memory _userName, string memory _password) public{\n    require(bytes(_userName).length > 0, \"userName should not be empty\");\n    require(bytes(_password).length > 0, \"password should not be empty\");\n    if(keccak256(abi.encodePacked(_userName)) == keccak256(abi.encodePacked(userName))\n     && keccak256(abi.encodePacked(_password)) == keccak256(abi.encodePacked(password))){\n       emit LoginResponse(true);\n     } else {\n       emit LoginResponse(false);\n     }\n\n  }\n}",
  "sourcePath": "/home/anupam/Blockchain/BlockChain_Institute_Managment/src/contracts/Institute.sol",
  "compiler": {
    "name": "solc",
    "version": "0.5.8+commit.23d335f2.Emscripten.clang"
  },
  "schemaVersion": "3.0.11",
  "updatedAt": "2019-07-28T13:39:35.148Z",
  "devdoc": {
    "methods": {}
  },
  "userdoc": {
    "methods": {}
  }
}