{
  "contractName": "Institute",
  "abi": [
    {
      "constant": true,
      "inputs": [
        {
          "name": "",
          "type": "address"
        }
      ],
      "name": "Institutes",
      "outputs": [
        {
          "name": "id",
          "type": "uint256"
        },
        {
          "name": "name",
          "type": "string"
        },
        {
          "name": "studentCount",
          "type": "uint256"
        }
      ],
      "payable": false,
      "stateMutability": "view",
      "type": "function"
    },
    {
      "constant": true,
      "inputs": [
        {
          "name": "",
          "type": "uint256"
        }
      ],
      "name": "InstitutesAccounts",
      "outputs": [
        {
          "name": "",
          "type": "address"
        }
      ],
      "payable": false,
      "stateMutability": "view",
      "type": "function"
    },
    {
      "constant": true,
      "inputs": [],
      "name": "accountPrice",
      "outputs": [
        {
          "name": "",
          "type": "uint256"
        }
      ],
      "payable": false,
      "stateMutability": "view",
      "type": "function"
    },
    {
      "constant": true,
      "inputs": [],
      "name": "admin",
      "outputs": [
        {
          "name": "",
          "type": "address"
        }
      ],
      "payable": false,
      "stateMutability": "view",
      "type": "function"
    },
    {
      "constant": true,
      "inputs": [],
      "name": "instituteCount",
      "outputs": [
        {
          "name": "",
          "type": "uint256"
        }
      ],
      "payable": false,
      "stateMutability": "view",
      "type": "function"
    },
    {
      "inputs": [
        {
          "name": "_superAdmin",
          "type": "address"
        },
        {
          "name": "_Price",
          "type": "uint256"
        }
      ],
      "payable": false,
      "stateMutability": "nonpayable",
      "type": "constructor"
    },
    {
      "anonymous": false,
      "inputs": [
        {
          "indexed": false,
          "name": "id",
          "type": "uint256"
        }
      ],
      "name": "instituteCreatedEvent",
      "type": "event"
    },
    {
      "constant": true,
      "inputs": [],
      "name": "getInstitutesAccounts",
      "outputs": [
        {
          "name": "",
          "type": "address[]"
        }
      ],
      "payable": false,
      "stateMutability": "view",
      "type": "function"
    },
    {
      "constant": true,
      "inputs": [
        {
          "name": "_address",
          "type": "address"
        }
      ],
      "name": "getInstitutes",
      "outputs": [
        {
          "name": "",
          "type": "uint256"
        },
        {
          "name": "",
          "type": "string"
        },
        {
          "name": "",
          "type": "uint256"
        }
      ],
      "payable": false,
      "stateMutability": "view",
      "type": "function"
    },
    {
      "constant": false,
      "inputs": [
        {
          "name": "_name",
          "type": "string"
        }
      ],
      "name": "addInstitute",
      "outputs": [],
      "payable": true,
      "stateMutability": "payable",
      "type": "function"
    }
  ],
  "bytecode": "0x608060405234801561001057600080fd5b50604051604080610c638339810180604052604081101561003057600080fd5b81019080805190602001909291908051906020019092919050505081600260006101000a81548173ffffffffffffffffffffffffffffffffffffffff021916908373ffffffffffffffffffffffffffffffffffffffff16021790555080600181905550336000806101000a81548173ffffffffffffffffffffffffffffffffffffffff021916908373ffffffffffffffffffffffffffffffffffffffff1602179055505050610b7f806100e46000396000f3fe60806040526004361061007b5760003560e01c8063eaea62201161004e578063eaea622014610317578063f851a44014610342578063fb72749a14610399578063fefb21a4146104545761007b565b806373bd6037146100805780638ac4c6a4146100ec578063a30b3ed0146101c4578063ccdcd3751461029c575b600080fd5b34801561008c57600080fd5b5061009561047f565b6040518080602001828103825283818151815260200191508051906020019060200280838360005b838110156100d85780820151818401526020810190506100bd565b505050509050019250505060405180910390f35b3480156100f857600080fd5b5061013b6004803603602081101561010f57600080fd5b81019080803573ffffffffffffffffffffffffffffffffffffffff169060200190929190505050610566565b6040518084815260200180602001838152602001828103825284818151815260200191508051906020019080838360005b8381101561018757808201518184015260208101905061016c565b50505050905090810190601f1680156101b45780820380516001836020036101000a031916815260200191505b5094505050505060405180910390f35b3480156101d057600080fd5b50610213600480360360208110156101e757600080fd5b81019080803573ffffffffffffffffffffffffffffffffffffffff169060200190929190505050610736565b6040518084815260200180602001838152602001828103825284818151815260200191508051906020019080838360005b8381101561025f578082015181840152602081019050610244565b50505050905090810190601f16801561028c5780820380516001836020036101000a031916815260200191505b5094505050505060405180910390f35b3480156102a857600080fd5b506102d5600480360360208110156102bf57600080fd5b81019080803590602001909291905050506107f8565b604051808273ffffffffffffffffffffffffffffffffffffffff1673ffffffffffffffffffffffffffffffffffffffff16815260200191505060405180910390f35b34801561032357600080fd5b5061032c610834565b6040518082815260200191505060405180910390f35b34801561034e57600080fd5b5061035761083a565b604051808273ffffffffffffffffffffffffffffffffffffffff1673ffffffffffffffffffffffffffffffffffffffff16815260200191505060405180910390f35b610452600480360360208110156103af57600080fd5b81019080803590602001906401000000008111156103cc57600080fd5b8201836020820111156103de57600080fd5b8035906020019184600183028401116401000000008311171561040057600080fd5b91908080601f016020809104026020016040519081016040528093929190818152602001838380828437600081840152601f19601f82011690508083019250505050505050919291929050505061085f565b005b34801561046057600080fd5b50610469610aa8565b6040518082815260200191505060405180910390f35b60606000809054906101000a900473ffffffffffffffffffffffffffffffffffffffff1673ffffffffffffffffffffffffffffffffffffffff163373ffffffffffffffffffffffffffffffffffffffff16146104da57600080fd5b600580548060200260200160405190810160405280929190818152602001828054801561055c57602002820191906000526020600020905b8160009054906101000a900473ffffffffffffffffffffffffffffffffffffffff1673ffffffffffffffffffffffffffffffffffffffff1681526020019060010190808311610512575b5050505050905090565b6000606060008060009054906101000a900473ffffffffffffffffffffffffffffffffffffffff1673ffffffffffffffffffffffffffffffffffffffff163373ffffffffffffffffffffffffffffffffffffffff16146105c557600080fd5b600460008573ffffffffffffffffffffffffffffffffffffffff1673ffffffffffffffffffffffffffffffffffffffff16815260200190815260200160002060000154600460008673ffffffffffffffffffffffffffffffffffffffff1673ffffffffffffffffffffffffffffffffffffffff168152602001908152602001600020600101600460008773ffffffffffffffffffffffffffffffffffffffff1673ffffffffffffffffffffffffffffffffffffffff16815260200190815260200160002060020154818054600181600116156101000203166002900480601f0160208091040260200160405190810160405280929190818152602001828054600181600116156101000203166002900480156107225780601f106106f757610100808354040283529160200191610722565b820191906000526020600020905b81548152906001019060200180831161070557829003601f168201915b505050505091509250925092509193909250565b6004602052806000526040600020600091509050806000015490806001018054600181600116156101000203166002900480601f0160208091040260200160405190810160405280929190818152602001828054600181600116156101000203166002900480156107e85780601f106107bd576101008083540402835291602001916107e8565b820191906000526020600020905b8154815290600101906020018083116107cb57829003601f168201915b5050505050908060020154905083565b6005818154811061080557fe5b906000526020600020016000915054906101000a900473ffffffffffffffffffffffffffffffffffffffff1681565b60015481565b6000809054906101000a900473ffffffffffffffffffffffffffffffffffffffff1681565b600154341461086d57600080fd5b600081511161087b57600080fd5b6001543373ffffffffffffffffffffffffffffffffffffffff163110156108a157600080fd5b6000809054906101000a900473ffffffffffffffffffffffffffffffffffffffff1673ffffffffffffffffffffffffffffffffffffffff163373ffffffffffffffffffffffffffffffffffffffff1614156108fb57600080fd5b600360008154809291906001019190505550604051806060016040528060035481526020018281526020016000815250600460003373ffffffffffffffffffffffffffffffffffffffff1673ffffffffffffffffffffffffffffffffffffffff168152602001908152602001600020600082015181600001556020820151816001019080519060200190610990929190610aae565b506040820151816002015590505060053390806001815401808255809150509060018203906000526020600020016000909192909190916101000a81548173ffffffffffffffffffffffffffffffffffffffff021916908373ffffffffffffffffffffffffffffffffffffffff160217905550506000809054906101000a900473ffffffffffffffffffffffffffffffffffffffff1673ffffffffffffffffffffffffffffffffffffffff166108fc349081150290604051600060405180830381858888f19350505050158015610a6b573d6000803e3d6000fd5b507fc825b02aaf76b8329f0379cbf2edbda85b27a2418fcefd24c39f587c05f4a9266003546040518082815260200191505060405180910390a150565b60035481565b828054600181600116156101000203166002900490600052602060002090601f016020900481019282601f10610aef57805160ff1916838001178555610b1d565b82800160010185558215610b1d579182015b82811115610b1c578251825591602001919060010190610b01565b5b509050610b2a9190610b2e565b5090565b610b5091905b80821115610b4c576000816000905550600101610b34565b5090565b9056fea165627a7a72305820a2c65685368fa5ef3b314e9f2636f7761ce28ad9fe6e446e4735b1f0df2475550029",
  "source": "pragma solidity ^0.5.0;\nimport \"./SuperAdmin.sol\";\n\ncontract Institute{\n   address payable public admin;\n   uint public accountPrice;\n   SuperAdmin superAdmin;\n\n   struct InstituteDetails {\n        uint id;\n        string name;\n        uint studentCount;\n    }\n     // Store Candidates Count\n    uint public instituteCount;\n\n    mapping(address => InstituteDetails) public Institutes;\n    address[] public InstitutesAccounts;\n\n    constructor(SuperAdmin _superAdmin, uint256 _Price) public{\n        superAdmin = _superAdmin;\n        accountPrice = _Price;\n        admin =  msg.sender;\n    }\n\n    event instituteCreatedEvent (\n        uint  id\n    );\n\n    function getInstitutesAccounts() view public returns(address[] memory) {\n        require(msg.sender == admin);\n        return InstitutesAccounts;\n    }\n\n    function getInstitutes(address _address) view public returns (uint, string memory , uint) {\n        require(msg.sender == admin);\n        return (Institutes[_address].id, Institutes[_address].name, Institutes[_address].studentCount);\n    }\n\n    function addInstitute (string memory _name) public payable {\n        require(msg.value == accountPrice);\n        require(bytes(_name).length > 0);\n        require(address(msg.sender).balance >= accountPrice);\n        require(msg.sender != admin);\n        instituteCount ++;\n        Institutes[msg.sender] = InstituteDetails(instituteCount, _name, 0);\n        InstitutesAccounts.push(msg.sender);\n        address(admin).transfer(msg.value);\n        emit instituteCreatedEvent(instituteCount);\n    }\n}",
  "sourcePath": "/home/anupam/Blockchain/BlockChain_Institute_Managment/src/contracts/Institute.sol",
  "compiler": {
    "name": "solc",
    "version": "0.5.8+commit.23d335f2.Emscripten.clang"
  },
  "schemaVersion": "3.0.11",
  "updatedAt": "2019-09-08T05:22:27.382Z",
  "devdoc": {
    "methods": {}
  },
  "userdoc": {
    "methods": {}
  }
}