{
  "contractName": "Student",
  "abi": [
    {
      "constant": true,
      "inputs": [
        {
          "name": "",
          "type": "address"
        }
      ],
      "name": "Students",
      "outputs": [
        {
          "name": "id",
          "type": "uint256"
        },
        {
          "name": "name",
          "type": "string"
        },
        {
          "name": "studentCount",
          "type": "uint256"
        }
      ],
      "payable": false,
      "stateMutability": "view",
      "type": "function"
    },
    {
      "constant": true,
      "inputs": [],
      "name": "StudentCount",
      "outputs": [
        {
          "name": "",
          "type": "uint256"
        }
      ],
      "payable": false,
      "stateMutability": "view",
      "type": "function"
    },
    {
      "constant": true,
      "inputs": [
        {
          "name": "",
          "type": "uint256"
        }
      ],
      "name": "StudentsAccounts",
      "outputs": [
        {
          "name": "",
          "type": "address"
        }
      ],
      "payable": false,
      "stateMutability": "view",
      "type": "function"
    },
    {
      "constant": true,
      "inputs": [],
      "name": "admin",
      "outputs": [
        {
          "name": "",
          "type": "address"
        }
      ],
      "payable": false,
      "stateMutability": "view",
      "type": "function"
    },
    {
      "inputs": [
        {
          "name": "_superAdmin",
          "type": "address"
        }
      ],
      "payable": false,
      "stateMutability": "nonpayable",
      "type": "constructor"
    },
    {
      "anonymous": false,
      "inputs": [
        {
          "indexed": false,
          "name": "id",
          "type": "uint256"
        }
      ],
      "name": "StudentCreatedEvent",
      "type": "event"
    },
    {
      "constant": true,
      "inputs": [],
      "name": "getStudentsAccounts",
      "outputs": [
        {
          "name": "",
          "type": "address[]"
        }
      ],
      "payable": false,
      "stateMutability": "view",
      "type": "function"
    },
    {
      "constant": true,
      "inputs": [
        {
          "name": "_address",
          "type": "address"
        }
      ],
      "name": "getStudents",
      "outputs": [
        {
          "name": "",
          "type": "uint256"
        },
        {
          "name": "",
          "type": "string"
        },
        {
          "name": "",
          "type": "uint256"
        }
      ],
      "payable": false,
      "stateMutability": "view",
      "type": "function"
    },
    {
      "constant": false,
      "inputs": [
        {
          "name": "_name",
          "type": "string"
        }
      ],
      "name": "addStudent",
      "outputs": [],
      "payable": true,
      "stateMutability": "payable",
      "type": "function"
    }
  ],
  "bytecode": "0x608060405234801561001057600080fd5b50604051602080610be18339810180604052602081101561003057600080fd5b810190808051906020019092919050505080600160006101000a81548173ffffffffffffffffffffffffffffffffffffffff021916908373ffffffffffffffffffffffffffffffffffffffff160217905550336000806101000a81548173ffffffffffffffffffffffffffffffffffffffff021916908373ffffffffffffffffffffffffffffffffffffffff16021790555050610b0f806100d26000396000f3fe6080604052600436106100705760003560e01c806399bc33a11161004e57806399bc33a114610233578063aa8e358d146102ae578063ef921af914610386578063f851a440146103f257610070565b806306ef5c0b14610075578063453e056a1461014d5780634973ccfb14610208575b600080fd5b34801561008157600080fd5b506100c46004803603602081101561009857600080fd5b81019080803573ffffffffffffffffffffffffffffffffffffffff169060200190929190505050610449565b6040518084815260200180602001838152602001828103825284818151815260200191508051906020019080838360005b838110156101105780820151818401526020810190506100f5565b50505050905090810190601f16801561013d5780820380516001836020036101000a031916815260200191505b5094505050505060405180910390f35b6102066004803603602081101561016357600080fd5b810190808035906020019064010000000081111561018057600080fd5b82018360208201111561019257600080fd5b803590602001918460018302840111640100000000831117156101b457600080fd5b91908080601f016020809104026020016040519081016040528093929190818152602001838380828437600081840152601f19601f82011690508083019250505050505050919291929050505061050b565b005b34801561021457600080fd5b5061021d610720565b6040518082815260200191505060405180910390f35b34801561023f57600080fd5b5061026c6004803603602081101561025657600080fd5b8101908080359060200190929190505050610726565b604051808273ffffffffffffffffffffffffffffffffffffffff1673ffffffffffffffffffffffffffffffffffffffff16815260200191505060405180910390f35b3480156102ba57600080fd5b506102fd600480360360208110156102d157600080fd5b81019080803573ffffffffffffffffffffffffffffffffffffffff169060200190929190505050610762565b6040518084815260200180602001838152602001828103825284818151815260200191508051906020019080838360005b8381101561034957808201518184015260208101905061032e565b50505050905090810190601f1680156103765780820380516001836020036101000a031916815260200191505b5094505050505060405180910390f35b34801561039257600080fd5b5061039b610932565b6040518080602001828103825283818151815260200191508051906020019060200280838360005b838110156103de5780820151818401526020810190506103c3565b505050509050019250505060405180910390f35b3480156103fe57600080fd5b50610407610a19565b604051808273ffffffffffffffffffffffffffffffffffffffff1673ffffffffffffffffffffffffffffffffffffffff16815260200191505060405180910390f35b6003602052806000526040600020600091509050806000015490806001018054600181600116156101000203166002900480601f0160208091040260200160405190810160405280929190818152602001828054600181600116156101000203166002900480156104fb5780601f106104d0576101008083540402835291602001916104fb565b820191906000526020600020905b8154815290600101906020018083116104de57829003601f168201915b5050505050908060020154905083565b600081511161051957600080fd5b6000809054906101000a900473ffffffffffffffffffffffffffffffffffffffff1673ffffffffffffffffffffffffffffffffffffffff163373ffffffffffffffffffffffffffffffffffffffff16141561057357600080fd5b600260008154809291906001019190505550604051806060016040528060025481526020018281526020016000815250600360003373ffffffffffffffffffffffffffffffffffffffff1673ffffffffffffffffffffffffffffffffffffffff168152602001908152602001600020600082015181600001556020820151816001019080519060200190610608929190610a3e565b506040820151816002015590505060043390806001815401808255809150509060018203906000526020600020016000909192909190916101000a81548173ffffffffffffffffffffffffffffffffffffffff021916908373ffffffffffffffffffffffffffffffffffffffff160217905550506000809054906101000a900473ffffffffffffffffffffffffffffffffffffffff1673ffffffffffffffffffffffffffffffffffffffff166108fc349081150290604051600060405180830381858888f193505050501580156106e3573d6000803e3d6000fd5b507f22538871d9f36e89580e60447ecc041075b5daab7077fc84a35bbdf79be221e76002546040518082815260200191505060405180910390a150565b60025481565b6004818154811061073357fe5b906000526020600020016000915054906101000a900473ffffffffffffffffffffffffffffffffffffffff1681565b6000606060008060009054906101000a900473ffffffffffffffffffffffffffffffffffffffff1673ffffffffffffffffffffffffffffffffffffffff163373ffffffffffffffffffffffffffffffffffffffff16146107c157600080fd5b600360008573ffffffffffffffffffffffffffffffffffffffff1673ffffffffffffffffffffffffffffffffffffffff16815260200190815260200160002060000154600360008673ffffffffffffffffffffffffffffffffffffffff1673ffffffffffffffffffffffffffffffffffffffff168152602001908152602001600020600101600360008773ffffffffffffffffffffffffffffffffffffffff1673ffffffffffffffffffffffffffffffffffffffff16815260200190815260200160002060020154818054600181600116156101000203166002900480601f01602080910402602001604051908101604052809291908181526020018280546001816001161561010002031660029004801561091e5780601f106108f35761010080835404028352916020019161091e565b820191906000526020600020905b81548152906001019060200180831161090157829003601f168201915b505050505091509250925092509193909250565b60606000809054906101000a900473ffffffffffffffffffffffffffffffffffffffff1673ffffffffffffffffffffffffffffffffffffffff163373ffffffffffffffffffffffffffffffffffffffff161461098d57600080fd5b6004805480602002602001604051908101604052809291908181526020018280548015610a0f57602002820191906000526020600020905b8160009054906101000a900473ffffffffffffffffffffffffffffffffffffffff1673ffffffffffffffffffffffffffffffffffffffff16815260200190600101908083116109c5575b5050505050905090565b6000809054906101000a900473ffffffffffffffffffffffffffffffffffffffff1681565b828054600181600116156101000203166002900490600052602060002090601f016020900481019282601f10610a7f57805160ff1916838001178555610aad565b82800160010185558215610aad579182015b82811115610aac578251825591602001919060010190610a91565b5b509050610aba9190610abe565b5090565b610ae091905b80821115610adc576000816000905550600101610ac4565b5090565b9056fea165627a7a723058204d8bf20ac9526c9bbd279b6fc372074741cbfadd4e8b664939effa3bde3f4dbd0029",
  "source": "pragma solidity ^0.5.0;\nimport \"./SuperAdmin.sol\";\n\ncontract Student{\n   address payable public admin;\n   SuperAdmin superAdmin;\n\n   struct StudentDetails {\n        uint id;\n        string name;\n        uint studentCount;\n    }\n     // Store Candidates Count\n    uint public StudentCount;\n\n\n    mapping(address => StudentDetails) public Students;\n    address[] public StudentsAccounts;\n\n    constructor(SuperAdmin _superAdmin) public{\n        superAdmin = _superAdmin;\n        admin =  msg.sender;\n    }\n\n    event StudentCreatedEvent (\n        uint  id\n    );\n\n    function getStudentsAccounts() view public returns(address[] memory) {\n        require(msg.sender == admin);\n        return StudentsAccounts;\n    }\n\n    function getStudents(address _address) view public returns (uint, string memory , uint) {\n        require(msg.sender == admin);\n        return (Students[_address].id, Students[_address].name, Students[_address].studentCount);\n    }\n\n    function addStudent (string memory _name) public payable {\n        require(bytes(_name).length > 0);\n        require(msg.sender != admin);\n        StudentCount ++;\n        Students[msg.sender] = StudentDetails(StudentCount, _name, 0);\n        StudentsAccounts.push(msg.sender);\n        address(admin).transfer(msg.value);\n        emit StudentCreatedEvent(StudentCount);\n    }\n}",
  "sourcePath": "/home/anupam/Blockchain/BlockChain_Institute_Managment/src/contracts/Student.sol",
  "compiler": {
    "name": "solc",
    "version": "0.5.8+commit.23d335f2.Emscripten.clang"
  },
  "schemaVersion": "3.0.11",
  "updatedAt": "2019-09-08T03:33:09.279Z",
  "devdoc": {
    "methods": {}
  },
  "userdoc": {
    "methods": {}
  }
}