{
  "contractName": "Subject",
  "abi": [
    {
      "constant": true,
      "inputs": [],
      "name": "subjectCount",
      "outputs": [
        {
          "name": "",
          "type": "uint256"
        }
      ],
      "payable": false,
      "stateMutability": "view",
      "type": "function"
    },
    {
      "constant": true,
      "inputs": [
        {
          "name": "",
          "type": "uint256"
        }
      ],
      "name": "SubjectsMap",
      "outputs": [
        {
          "name": "id",
          "type": "uint256"
        },
        {
          "name": "name",
          "type": "string"
        }
      ],
      "payable": false,
      "stateMutability": "view",
      "type": "function"
    },
    {
      "constant": true,
      "inputs": [],
      "name": "admin",
      "outputs": [
        {
          "name": "",
          "type": "address"
        }
      ],
      "payable": false,
      "stateMutability": "view",
      "type": "function"
    },
    {
      "inputs": [
        {
          "name": "_superAdmin",
          "type": "address"
        }
      ],
      "payable": false,
      "stateMutability": "nonpayable",
      "type": "constructor"
    },
    {
      "anonymous": false,
      "inputs": [
        {
          "indexed": false,
          "name": "id",
          "type": "uint256"
        }
      ],
      "name": "SubjectCreatedEvent",
      "type": "event"
    },
    {
      "constant": true,
      "inputs": [
        {
          "name": "id",
          "type": "uint256"
        }
      ],
      "name": "getSubjectsList",
      "outputs": [
        {
          "name": "",
          "type": "uint256"
        },
        {
          "name": "",
          "type": "string"
        }
      ],
      "payable": false,
      "stateMutability": "view",
      "type": "function"
    },
    {
      "constant": false,
      "inputs": [
        {
          "name": "_name",
          "type": "string"
        }
      ],
      "name": "addSubjectByAdmin",
      "outputs": [],
      "payable": false,
      "stateMutability": "nonpayable",
      "type": "function"
    }
  ],
  "bytecode": "0x608060405234801561001057600080fd5b50604051602080610b988339810180604052602081101561003057600080fd5b810190808051906020019092919050505080600160006101000a81548173ffffffffffffffffffffffffffffffffffffffff021916908373ffffffffffffffffffffffffffffffffffffffff160217905550336000806101000a81548173ffffffffffffffffffffffffffffffffffffffff021916908373ffffffffffffffffffffffffffffffffffffffff1602179055506101066040518060400160405280600581526020017f48696e64690000000000000000000000000000000000000000000000000000008152506102a460201b60201c565b61014a6040518060400160405280600781526020017f456e676c697368000000000000000000000000000000000000000000000000008152506102a460201b60201c565b61018e6040518060400160405280600b81526020017f4d657468616d65746963730000000000000000000000000000000000000000008152506102a460201b60201c565b6101d26040518060400160405280600781526020017f536369656e6365000000000000000000000000000000000000000000000000008152506102a460201b60201c565b6102166040518060400160405280600781526020017f536369656e6365000000000000000000000000000000000000000000000000008152506102a460201b60201c565b61025a6040518060400160405280600781526020017f50687973696373000000000000000000000000000000000000000000000000008152506102a460201b60201c565b61029e6040518060400160405280600981526020017f4368616d657374727900000000000000000000000000000000000000000000008152506102a460201b60201c565b50610432565b6002600081548092919060010191905055506102be610373565b604051806040016040528060025481526020018381525090508060046000600254815260200190815260200160002060008201518160000155602082015181600101908051906020019061031392919061038d565b509050506003819080600181540180825580915050906001820390600052602060002090600202016000909192909190915060008201518160000155602082015181600101908051906020019061036b92919061038d565b505050505050565b604051806040016040528060008152602001606081525090565b828054600181600116156101000203166002900490600052602060002090601f016020900481019282601f106103ce57805160ff19168380011785556103fc565b828001600101855582156103fc579182015b828111156103fb5782518255916020019190600101906103e0565b5b509050610409919061040d565b5090565b61042f91905b8082111561042b576000816000905550600101610413565b5090565b90565b610757806104416000396000f3fe608060405234801561001057600080fd5b50600436106100575760003560e01c8063639a2e101461005c5780636628a3631461007a578063dcd4a32f14610128578063f3890c77146101d6578063f851a44014610291575b600080fd5b6100646102db565b6040518082815260200191505060405180910390f35b6100a66004803603602081101561009057600080fd5b81019080803590602001909291905050506102e1565b6040518083815260200180602001828103825283818151815260200191508051906020019080838360005b838110156100ec5780820151818401526020810190506100d1565b50505050905090810190601f1680156101195780820380516001836020036101000a031916815260200191505b50935050505060405180910390f35b6101546004803603602081101561013e57600080fd5b810190808035906020019092919050505061039d565b6040518083815260200180602001828103825283818151815260200191508051906020019080838360005b8381101561019a57808201518184015260208101905061017f565b50505050905090810190601f1680156101c75780820380516001836020036101000a031916815260200191505b50935050505060405180910390f35b61028f600480360360208110156101ec57600080fd5b810190808035906020019064010000000081111561020957600080fd5b82018360208201111561021b57600080fd5b8035906020019184600183028401116401000000008311171561023d57600080fd5b91908080601f016020809104026020016040519081016040528093929190818152602001838380828437600081840152601f19601f8201169050808301925050505050505091929192905050506104cc565b005b610299610578565b604051808273ffffffffffffffffffffffffffffffffffffffff1673ffffffffffffffffffffffffffffffffffffffff16815260200191505060405180910390f35b60025481565b6004602052806000526040600020600091509050806000015490806001018054600181600116156101000203166002900480601f0160208091040260200160405190810160405280929190818152602001828054600181600116156101000203166002900480156103935780601f1061036857610100808354040283529160200191610393565b820191906000526020600020905b81548152906001019060200180831161037657829003601f168201915b5050505050905082565b600060606000809054906101000a900473ffffffffffffffffffffffffffffffffffffffff1673ffffffffffffffffffffffffffffffffffffffff163373ffffffffffffffffffffffffffffffffffffffff16146103fa57600080fd5b600460008481526020019081526020016000206000015460046000858152602001908152602001600020600101808054600181600116156101000203166002900480601f0160208091040260200160405190810160405280929190818152602001828054600181600116156101000203166002900480156104bc5780601f10610491576101008083540402835291602001916104bc565b820191906000526020600020905b81548152906001019060200180831161049f57829003601f168201915b5050505050905091509150915091565b60008151116104da57600080fd5b6000809054906101000a900473ffffffffffffffffffffffffffffffffffffffff1673ffffffffffffffffffffffffffffffffffffffff163373ffffffffffffffffffffffffffffffffffffffff161461053357600080fd5b61053c8161059d565b7fdeacb82eb5ff747341c25340fc63cd5122afbe529fd93226ab8bc271f6fcaaef6002546040518082815260200191505060405180910390a150565b6000809054906101000a900473ffffffffffffffffffffffffffffffffffffffff1681565b6002600081548092919060010191905055506105b761066c565b604051806040016040528060025481526020018381525090508060046000600254815260200190815260200160002060008201518160000155602082015181600101908051906020019061060c929190610686565b5090505060038190806001815401808255809150509060018203906000526020600020906002020160009091929091909150600082015181600001556020820151816001019080519060200190610664929190610686565b505050505050565b604051806040016040528060008152602001606081525090565b828054600181600116156101000203166002900490600052602060002090601f016020900481019282601f106106c757805160ff19168380011785556106f5565b828001600101855582156106f5579182015b828111156106f45782518255916020019190600101906106d9565b5b5090506107029190610706565b5090565b61072891905b8082111561072457600081600090555060010161070c565b5090565b9056fea165627a7a72305820462e9fb5d598eb9d1a7a467ffaaae9d7f592b68b2fa36e1062900724d7919e9c0029",
  "source": "pragma solidity ^0.5.0;\nimport \"./SuperAdmin.sol\";\n\ncontract Subject{\n   address payable public admin;\n   SuperAdmin superAdmin;\n\n   struct SubjectDetails {\n        uint id;\n        string name;\n    }\n     // Store Candidates Count\n    uint public subjectCount;\n\n    SubjectDetails[] SubjectDetailsArray;\n\n    mapping(uint => SubjectDetails) public SubjectsMap;\n\n    constructor(SuperAdmin _superAdmin) public{\n        superAdmin = _superAdmin;\n        admin =  msg.sender;\n        addSubject('Hindi');\n        addSubject('English');\n        addSubject('Methametics');\n        addSubject('Science');\n        addSubject('Science');\n        addSubject('Physics');\n        addSubject('Chamestry');\n    }\n\n    event SubjectCreatedEvent (\n        uint  id\n    );\n\n\n    function getSubjectsList(uint id) view public returns (uint, string memory) {\n        require(msg.sender == admin);\n        return (SubjectsMap[id].id, SubjectsMap[id].name);\n    }\n\n    function addSubjectByAdmin (string memory _name) public {\n        require(bytes(_name).length > 0);\n        require(msg.sender == admin);\n        addSubject(_name);\n        emit SubjectCreatedEvent(subjectCount);\n    }\n\n    function addSubject (string memory _name) private {\n        subjectCount ++;\n        SubjectDetails memory subjectDetailsObj = SubjectDetails(subjectCount, _name);\n        SubjectsMap[subjectCount] = subjectDetailsObj;\n        SubjectDetailsArray.push(subjectDetailsObj);\n    }\n\n}",
  "sourcePath": "/home/anupam/Blockchain/BlockChain_Institute_Managment/src/contracts/Subject.sol",
  "compiler": {
    "name": "solc",
    "version": "0.5.8+commit.23d335f2.Emscripten.clang"
  },
  "schemaVersion": "3.0.11",
  "updatedAt": "2019-09-08T05:22:27.387Z",
  "devdoc": {
    "methods": {}
  },
  "userdoc": {
    "methods": {}
  }
}