{
  "contractName": "SuperAdmin",
  "abi": [
    {
      "constant": true,
      "inputs": [],
      "name": "admin",
      "outputs": [
        {
          "name": "",
          "type": "address"
        }
      ],
      "payable": false,
      "stateMutability": "view",
      "type": "function"
    },
    {
      "inputs": [],
      "payable": false,
      "stateMutability": "nonpayable",
      "type": "constructor"
    },
    {
      "anonymous": false,
      "inputs": [
        {
          "indexed": false,
          "name": "isLoggedIn",
          "type": "bool"
        }
      ],
      "name": "LoginResponse",
      "type": "event"
    },
    {
      "constant": false,
      "inputs": [],
      "name": "login",
      "outputs": [],
      "payable": false,
      "stateMutability": "nonpayable",
      "type": "function"
    }
  ],
  "bytecode": "0x60806040526040518060400160405280600b81526020017f4d79496e737469747574650000000000000000000000000000000000000000008152506001908051906020019061004f9291906100ee565b506040518060400160405280600781526020017f31323340616263000000000000000000000000000000000000000000000000008152506002908051906020019061009b9291906100ee565b503480156100a857600080fd5b50336000806101000a81548173ffffffffffffffffffffffffffffffffffffffff021916908373ffffffffffffffffffffffffffffffffffffffff160217905550610193565b828054600181600116156101000203166002900490600052602060002090601f016020900481019282601f1061012f57805160ff191683800117855561015d565b8280016001018555821561015d579182015b8281111561015c578251825591602001919060010190610141565b5b50905061016a919061016e565b5090565b61019091905b8082111561018c576000816000905550600101610174565b5090565b90565b6101b5806101a26000396000f3fe608060405234801561001057600080fd5b50600436106100365760003560e01c8063b34e97e81461003b578063f851a44014610045575b600080fd5b61004361008f565b005b61004d610164565b604051808273ffffffffffffffffffffffffffffffffffffffff1673ffffffffffffffffffffffffffffffffffffffff16815260200191505060405180910390f35b6000809054906101000a900473ffffffffffffffffffffffffffffffffffffffff1673ffffffffffffffffffffffffffffffffffffffff163373ffffffffffffffffffffffffffffffffffffffff161415610125577f80511114dae503bfa3fdfcb12893686babc110f01ae362c79abe2ce6aec1ae426001604051808215151515815260200191505060405180910390a1610162565b7f80511114dae503bfa3fdfcb12893686babc110f01ae362c79abe2ce6aec1ae426000604051808215151515815260200191505060405180910390a15b565b6000809054906101000a900473ffffffffffffffffffffffffffffffffffffffff168156fea165627a7a72305820a47d6379dfd6cfb6cbe6319723247307ec02d9cce023fd1adacfcfe52f23625a0029",
  "source": "pragma solidity ^0.5.0;\n\ncontract SuperAdmin{\n  address public admin;\n  string userName = \"MyInstitute\";\n  string password = \"123@abc\";\n\n  event LoginResponse(bool isLoggedIn);\n  \n  constructor() public{\n        admin =  msg.sender;\n    }\n\n\n  function login() public{\n    if(msg.sender == admin){\n       emit LoginResponse(true);\n     } else {\n       emit LoginResponse(false);\n     }\n\n  }\n}",
  "sourcePath": "/home/anupam/Blockchain/BlockChain_Institute_Managment/src/contracts/SuperAdmin.sol",
  "compiler": {
    "name": "solc",
    "version": "0.5.8+commit.23d335f2.Emscripten.clang"
  },
  "schemaVersion": "3.0.11",
  "updatedAt": "2019-09-01T03:42:56.880Z",
  "devdoc": {
    "methods": {}
  },
  "userdoc": {
    "methods": {}
  }
}